{
  "_format": "hh-sol-artifact-1",
  "contractName": "MyNFT",
  "sourceName": "contracts/MyNFT.sol",
  "abi": [
    {
      "inputs": [],
      "stateMutability": "nonpayable",
      "type": "constructor"
    },
    {
      "inputs": [
        {
          "internalType": "address",
          "name": "sender",
          "type": "address"
        },
        {
          "internalType": "uint256",
          "name": "tokenId",
          "type": "uint256"
        },
        {
          "internalType": "address",
          "name": "owner",
          "type": "address"
        }
      ],
      "name": "ERC721IncorrectOwner",
      "type": "error"
    },
    {
      "inputs": [
        {
          "internalType": "address",
          "name": "operator",
          "type": "address"
        },
        {
          "internalType": "uint256",
          "name": "tokenId",
          "type": "uint256"
        }
      ],
      "name": "ERC721InsufficientApproval",
      "type": "error"
    },
    {
      "inputs": [
        {
          "internalType": "address",
          "name": "approver",
          "type": "address"
        }
      ],
      "name": "ERC721InvalidApprover",
      "type": "error"
    },
    {
      "inputs": [
        {
          "internalType": "address",
          "name": "operator",
          "type": "address"
        }
      ],
      "name": "ERC721InvalidOperator",
      "type": "error"
    },
    {
      "inputs": [
        {
          "internalType": "address",
          "name": "owner",
          "type": "address"
        }
      ],
      "name": "ERC721InvalidOwner",
      "type": "error"
    },
    {
      "inputs": [
        {
          "internalType": "address",
          "name": "receiver",
          "type": "address"
        }
      ],
      "name": "ERC721InvalidReceiver",
      "type": "error"
    },
    {
      "inputs": [
        {
          "internalType": "address",
          "name": "sender",
          "type": "address"
        }
      ],
      "name": "ERC721InvalidSender",
      "type": "error"
    },
    {
      "inputs": [
        {
          "internalType": "uint256",
          "name": "tokenId",
          "type": "uint256"
        }
      ],
      "name": "ERC721NonexistentToken",
      "type": "error"
    },
    {
      "inputs": [
        {
          "internalType": "address",
          "name": "owner",
          "type": "address"
        }
      ],
      "name": "OwnableInvalidOwner",
      "type": "error"
    },
    {
      "inputs": [
        {
          "internalType": "address",
          "name": "account",
          "type": "address"
        }
      ],
      "name": "OwnableUnauthorizedAccount",
      "type": "error"
    },
    {
      "anonymous": false,
      "inputs": [
        {
          "indexed": true,
          "internalType": "address",
          "name": "owner",
          "type": "address"
        },
        {
          "indexed": true,
          "internalType": "address",
          "name": "approved",
          "type": "address"
        },
        {
          "indexed": true,
          "internalType": "uint256",
          "name": "tokenId",
          "type": "uint256"
        }
      ],
      "name": "Approval",
      "type": "event"
    },
    {
      "anonymous": false,
      "inputs": [
        {
          "indexed": true,
          "internalType": "address",
          "name": "owner",
          "type": "address"
        },
        {
          "indexed": true,
          "internalType": "address",
          "name": "operator",
          "type": "address"
        },
        {
          "indexed": false,
          "internalType": "bool",
          "name": "approved",
          "type": "bool"
        }
      ],
      "name": "ApprovalForAll",
      "type": "event"
    },
    {
      "anonymous": false,
      "inputs": [
        {
          "indexed": false,
          "internalType": "uint256",
          "name": "_fromTokenId",
          "type": "uint256"
        },
        {
          "indexed": false,
          "internalType": "uint256",
          "name": "_toTokenId",
          "type": "uint256"
        }
      ],
      "name": "BatchMetadataUpdate",
      "type": "event"
    },
    {
      "anonymous": false,
      "inputs": [
        {
          "indexed": false,
          "internalType": "uint256",
          "name": "_tokenId",
          "type": "uint256"
        }
      ],
      "name": "MetadataUpdate",
      "type": "event"
    },
    {
      "anonymous": false,
      "inputs": [
        {
          "indexed": true,
          "internalType": "address",
          "name": "previousOwner",
          "type": "address"
        },
        {
          "indexed": true,
          "internalType": "address",
          "name": "newOwner",
          "type": "address"
        }
      ],
      "name": "OwnershipTransferred",
      "type": "event"
    },
    {
      "anonymous": false,
      "inputs": [
        {
          "indexed": true,
          "internalType": "address",
          "name": "from",
          "type": "address"
        },
        {
          "indexed": true,
          "internalType": "address",
          "name": "to",
          "type": "address"
        },
        {
          "indexed": true,
          "internalType": "uint256",
          "name": "tokenId",
          "type": "uint256"
        }
      ],
      "name": "Transfer",
      "type": "event"
    },
    {
      "inputs": [
        {
          "internalType": "address",
          "name": "to",
          "type": "address"
        },
        {
          "internalType": "uint256",
          "name": "tokenId",
          "type": "uint256"
        }
      ],
      "name": "approve",
      "outputs": [],
      "stateMutability": "nonpayable",
      "type": "function"
    },
    {
      "inputs": [
        {
          "internalType": "address",
          "name": "owner",
          "type": "address"
        }
      ],
      "name": "balanceOf",
      "outputs": [
        {
          "internalType": "uint256",
          "name": "",
          "type": "uint256"
        }
      ],
      "stateMutability": "view",
      "type": "function"
    },
    {
      "inputs": [
        {
          "internalType": "uint256",
          "name": "tokenId",
          "type": "uint256"
        }
      ],
      "name": "getApproved",
      "outputs": [
        {
          "internalType": "address",
          "name": "",
          "type": "address"
        }
      ],
      "stateMutability": "view",
      "type": "function"
    },
    {
      "inputs": [
        {
          "internalType": "address",
          "name": "owner",
          "type": "address"
        },
        {
          "internalType": "address",
          "name": "operator",
          "type": "address"
        }
      ],
      "name": "isApprovedForAll",
      "outputs": [
        {
          "internalType": "bool",
          "name": "",
          "type": "bool"
        }
      ],
      "stateMutability": "view",
      "type": "function"
    },
    {
      "inputs": [
        {
          "internalType": "address",
          "name": "to",
          "type": "address"
        },
        {
          "internalType": "string",
          "name": "tokenURI",
          "type": "string"
        }
      ],
      "name": "mintNFT",
      "outputs": [
        {
          "internalType": "uint256",
          "name": "",
          "type": "uint256"
        }
      ],
      "stateMutability": "payable",
      "type": "function"
    },
    {
      "inputs": [],
      "name": "mintPrice",
      "outputs": [
        {
          "internalType": "uint256",
          "name": "",
          "type": "uint256"
        }
      ],
      "stateMutability": "view",
      "type": "function"
    },
    {
      "inputs": [],
      "name": "name",
      "outputs": [
        {
          "internalType": "string",
          "name": "",
          "type": "string"
        }
      ],
      "stateMutability": "view",
      "type": "function"
    },
    {
      "inputs": [],
      "name": "owner",
      "outputs": [
        {
          "internalType": "address",
          "name": "",
          "type": "address"
        }
      ],
      "stateMutability": "view",
      "type": "function"
    },
    {
      "inputs": [
        {
          "internalType": "uint256",
          "name": "tokenId",
          "type": "uint256"
        }
      ],
      "name": "ownerOf",
      "outputs": [
        {
          "internalType": "address",
          "name": "",
          "type": "address"
        }
      ],
      "stateMutability": "view",
      "type": "function"
    },
    {
      "inputs": [],
      "name": "renounceOwnership",
      "outputs": [],
      "stateMutability": "nonpayable",
      "type": "function"
    },
    {
      "inputs": [
        {
          "internalType": "address",
          "name": "from",
          "type": "address"
        },
        {
          "internalType": "address",
          "name": "to",
          "type": "address"
        },
        {
          "internalType": "uint256",
          "name": "tokenId",
          "type": "uint256"
        }
      ],
      "name": "safeTransferFrom",
      "outputs": [],
      "stateMutability": "nonpayable",
      "type": "function"
    },
    {
      "inputs": [
        {
          "internalType": "address",
          "name": "from",
          "type": "address"
        },
        {
          "internalType": "address",
          "name": "to",
          "type": "address"
        },
        {
          "internalType": "uint256",
          "name": "tokenId",
          "type": "uint256"
        },
        {
          "internalType": "bytes",
          "name": "data",
          "type": "bytes"
        }
      ],
      "name": "safeTransferFrom",
      "outputs": [],
      "stateMutability": "nonpayable",
      "type": "function"
    },
    {
      "inputs": [
        {
          "internalType": "address",
          "name": "operator",
          "type": "address"
        },
        {
          "internalType": "bool",
          "name": "approved",
          "type": "bool"
        }
      ],
      "name": "setApprovalForAll",
      "outputs": [],
      "stateMutability": "nonpayable",
      "type": "function"
    },
    {
      "inputs": [
        {
          "internalType": "bytes4",
          "name": "interfaceId",
          "type": "bytes4"
        }
      ],
      "name": "supportsInterface",
      "outputs": [
        {
          "internalType": "bool",
          "name": "",
          "type": "bool"
        }
      ],
      "stateMutability": "view",
      "type": "function"
    },
    {
      "inputs": [],
      "name": "symbol",
      "outputs": [
        {
          "internalType": "string",
          "name": "",
          "type": "string"
        }
      ],
      "stateMutability": "view",
      "type": "function"
    },
    {
      "inputs": [
        {
          "internalType": "uint256",
          "name": "tokenId",
          "type": "uint256"
        }
      ],
      "name": "tokenURI",
      "outputs": [
        {
          "internalType": "string",
          "name": "",
          "type": "string"
        }
      ],
      "stateMutability": "view",
      "type": "function"
    },
    {
      "inputs": [],
      "name": "totalSupply",
      "outputs": [
        {
          "internalType": "uint256",
          "name": "",
          "type": "uint256"
        }
      ],
      "stateMutability": "view",
      "type": "function"
    },
    {
      "inputs": [
        {
          "internalType": "address",
          "name": "from",
          "type": "address"
        },
        {
          "internalType": "address",
          "name": "to",
          "type": "address"
        },
        {
          "internalType": "uint256",
          "name": "tokenId",
          "type": "uint256"
        }
      ],
      "name": "transferFrom",
      "outputs": [],
      "stateMutability": "nonpayable",
      "type": "function"
    },
    {
      "inputs": [
        {
          "internalType": "address",
          "name": "newOwner",
          "type": "address"
        }
      ],
      "name": "transferOwnership",
      "outputs": [],
      "stateMutability": "nonpayable",
      "type": "function"
    }
  ],
  "bytecode": "0x6080604052600060095534801561001557600080fd5b50336040518060400160405280600f81526020017f4d794e4654436f6c6c656374696f6e00000000000000000000000000000000008152506040518060400160405280600381526020017f4d4e43000000000000000000000000000000000000000000000000000000000081525081600090816100929190610442565b5080600190816100a29190610442565b505050600073ffffffffffffffffffffffffffffffffffffffff168173ffffffffffffffffffffffffffffffffffffffff16036101175760006040517f1e4fbdf700000000000000000000000000000000000000000000000000000000815260040161010e9190610555565b60405180910390fd5b6101268161012c60201b60201c565b50610570565b6000600760009054906101000a900473ffffffffffffffffffffffffffffffffffffffff16905081600760006101000a81548173ffffffffffffffffffffffffffffffffffffffff021916908373ffffffffffffffffffffffffffffffffffffffff1602179055508173ffffffffffffffffffffffffffffffffffffffff168173ffffffffffffffffffffffffffffffffffffffff167f8be0079c531659141344cd1fd0a4f28419497f9722a3daafe3b4186f6b6457e060405160405180910390a35050565b600081519050919050565b7f4e487b7100000000000000000000000000000000000000000000000000000000600052604160045260246000fd5b7f4e487b7100000000000000000000000000000000000000000000000000000000600052602260045260246000fd5b6000600282049050600182168061027357607f821691505b6020821081036102865761028561022c565b5b50919050565b60008190508160005260206000209050919050565b60006020601f8301049050919050565b600082821b905092915050565b6000600883026102ee7fffffffffffffffffffffffffffffffffffffffffffffffffffffffffffffffff826102b1565b6102f886836102b1565b95508019841693508086168417925050509392505050565b6000819050919050565b6000819050919050565b600061033f61033a61033584610310565b61031a565b610310565b9050919050565b6000819050919050565b61035983610324565b61036d61036582610346565b8484546102be565b825550505050565b600090565b610382610375565b61038d818484610350565b505050565b5b818110156103b1576103a660008261037a565b600181019050610393565b5050565b601f8211156103f6576103c78161028c565b6103d0846102a1565b810160208510156103df578190505b6103f36103eb856102a1565b830182610392565b50505b505050565b600082821c905092915050565b6000610419600019846008026103fb565b1980831691505092915050565b60006104328383610408565b9150826002028217905092915050565b61044b826101f2565b67ffffffffffffffff811115610464576104636101fd565b5b61046e825461025b565b6104798282856103b5565b600060209050601f8311600181146104ac576000841561049a578287015190505b6104a48582610426565b86555061050c565b601f1984166104ba8661028c565b60005b828110156104e2578489015182556001820191506020850194506020810190506104bd565b868310156104ff57848901516104fb601f891682610408565b8355505b6001600288020188555050505b505050505050565b600073ffffffffffffffffffffffffffffffffffffffff82169050919050565b600061053f82610514565b9050919050565b61054f81610534565b82525050565b600060208201905061056a6000830184610546565b92915050565b61286b8061057f6000396000f3fe6080604052600436106101145760003560e01c806370a08231116100a0578063b88d4fde11610064578063b88d4fde1461039f578063c87b56dd146103c8578063e985e9c514610405578063eacabe1414610442578063f2fde38b1461047257610114565b806370a08231146102cc578063715018a6146103095780638da5cb5b1461032057806395d89b411461034b578063a22cb4651461037657610114565b806318160ddd116100e757806318160ddd146101e757806323b872dd1461021257806342842e0e1461023b5780636352211e146102645780636817c76c146102a157610114565b806301ffc9a71461011957806306fdde0314610156578063081812fc14610181578063095ea7b3146101be575b600080fd5b34801561012557600080fd5b50610140600480360381019061013b9190611c57565b61049b565b60405161014d9190611c9f565b60405180910390f35b34801561016257600080fd5b5061016b6104fc565b6040516101789190611d4a565b60405180910390f35b34801561018d57600080fd5b506101a860048036038101906101a39190611da2565b61058e565b6040516101b59190611e10565b60405180910390f35b3480156101ca57600080fd5b506101e560048036038101906101e09190611e57565b6105aa565b005b3480156101f357600080fd5b506101fc6105c0565b6040516102099190611ea6565b60405180910390f35b34801561021e57600080fd5b5061023960048036038101906102349190611ec1565b6105ca565b005b34801561024757600080fd5b50610262600480360381019061025d9190611ec1565b6106cc565b005b34801561027057600080fd5b5061028b60048036038101906102869190611da2565b6106ec565b6040516102989190611e10565b60405180910390f35b3480156102ad57600080fd5b506102b66106fe565b6040516102c39190611ea6565b60405180910390f35b3480156102d857600080fd5b506102f360048036038101906102ee9190611f14565b610704565b6040516103009190611ea6565b60405180910390f35b34801561031557600080fd5b5061031e6107be565b005b34801561032c57600080fd5b506103356107d2565b6040516103429190611e10565b60405180910390f35b34801561035757600080fd5b506103606107fc565b60405161036d9190611d4a565b60405180910390f35b34801561038257600080fd5b5061039d60048036038101906103989190611f6d565b61088e565b005b3480156103ab57600080fd5b506103c660048036038101906103c191906120e2565b6108a4565b005b3480156103d457600080fd5b506103ef60048036038101906103ea9190611da2565b6108c9565b6040516103fc9190611d4a565b60405180910390f35b34801561041157600080fd5b5061042c60048036038101906104279190612165565b6109dc565b6040516104399190611c9f565b60405180910390f35b61045c60048036038101906104579190612246565b610a70565b6040516104699190611ea6565b60405180910390f35b34801561047e57600080fd5b5061049960048036038101906104949190611f14565b610af4565b005b6000634906490660e01b7bffffffffffffffffffffffffffffffffffffffffffffffffffffffff1916827bffffffffffffffffffffffffffffffffffffffffffffffffffffffff191614806104f557506104f482610b7a565b5b9050919050565b60606000805461050b906122d1565b80601f0160208091040260200160405190810160405280929190818152602001828054610537906122d1565b80156105845780601f1061055957610100808354040283529160200191610584565b820191906000526020600020905b81548152906001019060200180831161056757829003601f168201915b5050505050905090565b600061059982610c5c565b506105a382610ce4565b9050919050565b6105bc82826105b7610d21565b610d29565b5050565b6000600854905090565b600073ffffffffffffffffffffffffffffffffffffffff168273ffffffffffffffffffffffffffffffffffffffff160361063c5760006040517f64a0ae920000000000000000000000000000000000000000000000000000000081526004016106339190611e10565b60405180910390fd5b6000610650838361064b610d21565b610d3b565b90508373ffffffffffffffffffffffffffffffffffffffff168173ffffffffffffffffffffffffffffffffffffffff16146106c6578382826040517f64283d7b0000000000000000000000000000000000000000000000000000000081526004016106bd93929190612302565b60405180910390fd5b50505050565b6106e7838383604051806020016040528060008152506108a4565b505050565b60006106f782610c5c565b9050919050565b60095481565b60008073ffffffffffffffffffffffffffffffffffffffff168273ffffffffffffffffffffffffffffffffffffffff16036107775760006040517f89c62b6400000000000000000000000000000000000000000000000000000000815260040161076e9190611e10565b60405180910390fd5b600360008373ffffffffffffffffffffffffffffffffffffffff1673ffffffffffffffffffffffffffffffffffffffff168152602001908152602001600020549050919050565b6107c6610f55565b6107d06000610fdc565b565b6000600760009054906101000a900473ffffffffffffffffffffffffffffffffffffffff16905090565b60606001805461080b906122d1565b80601f0160208091040260200160405190810160405280929190818152602001828054610837906122d1565b80156108845780601f1061085957610100808354040283529160200191610884565b820191906000526020600020905b81548152906001019060200180831161086757829003601f168201915b5050505050905090565b6108a0610899610d21565b83836110a2565b5050565b6108af8484846105ca565b6108c36108ba610d21565b85858585611211565b50505050565b60606108d482610c5c565b5060006006600084815260200190815260200160002080546108f5906122d1565b80601f0160208091040260200160405190810160405280929190818152602001828054610921906122d1565b801561096e5780601f106109435761010080835404028352916020019161096e565b820191906000526020600020905b81548152906001019060200180831161095157829003601f168201915b50505050509050600061097f6113c2565b905060008151036109945781925050506109d7565b6000825111156109c95780826040516020016109b1929190612375565b604051602081830303815290604052925050506109d7565b6109d2846113d9565b925050505b919050565b6000600560008473ffffffffffffffffffffffffffffffffffffffff1673ffffffffffffffffffffffffffffffffffffffff16815260200190815260200160002060008373ffffffffffffffffffffffffffffffffffffffff1673ffffffffffffffffffffffffffffffffffffffff16815260200190815260200160002060009054906101000a900460ff16905092915050565b6000600954341015610ab7576040517f08c379a0000000000000000000000000000000000000000000000000000000008152600401610aae906123e5565b60405180910390fd5b6000600854905060086000815480929190610ad190612434565b9190505550610ae08482611442565b610aea8184611460565b8091505092915050565b610afc610f55565b600073ffffffffffffffffffffffffffffffffffffffff168173ffffffffffffffffffffffffffffffffffffffff1603610b6e5760006040517f1e4fbdf7000000000000000000000000000000000000000000000000000000008152600401610b659190611e10565b60405180910390fd5b610b7781610fdc565b50565b60007f80ac58cd000000000000000000000000000000000000000000000000000000007bffffffffffffffffffffffffffffffffffffffffffffffffffffffff1916827bffffffffffffffffffffffffffffffffffffffffffffffffffffffff19161480610c4557507f5b5e139f000000000000000000000000000000000000000000000000000000007bffffffffffffffffffffffffffffffffffffffffffffffffffffffff1916827bffffffffffffffffffffffffffffffffffffffffffffffffffffffff1916145b80610c555750610c54826114bc565b5b9050919050565b600080610c6883611526565b9050600073ffffffffffffffffffffffffffffffffffffffff168173ffffffffffffffffffffffffffffffffffffffff1603610cdb57826040517f7e273289000000000000000000000000000000000000000000000000000000008152600401610cd29190611ea6565b60405180910390fd5b80915050919050565b60006004600083815260200190815260200160002060009054906101000a900473ffffffffffffffffffffffffffffffffffffffff169050919050565b600033905090565b610d368383836001611563565b505050565b600080610d4784611526565b9050600073ffffffffffffffffffffffffffffffffffffffff168373ffffffffffffffffffffffffffffffffffffffff1614610d8957610d88818486611728565b5b600073ffffffffffffffffffffffffffffffffffffffff168173ffffffffffffffffffffffffffffffffffffffff1614610e1a57610dcb600085600080611563565b6001600360008373ffffffffffffffffffffffffffffffffffffffff1673ffffffffffffffffffffffffffffffffffffffff168152602001908152602001600020600082825403925050819055505b600073ffffffffffffffffffffffffffffffffffffffff168573ffffffffffffffffffffffffffffffffffffffff1614610e9d576001600360008773ffffffffffffffffffffffffffffffffffffffff1673ffffffffffffffffffffffffffffffffffffffff168152602001908152602001600020600082825401925050819055505b846002600086815260200190815260200160002060006101000a81548173ffffffffffffffffffffffffffffffffffffffff021916908373ffffffffffffffffffffffffffffffffffffffff160217905550838573ffffffffffffffffffffffffffffffffffffffff168273ffffffffffffffffffffffffffffffffffffffff167fddf252ad1be2c89b69c2b068fc378daa952ba7f163c4a11628f55a4df523b3ef60405160405180910390a4809150509392505050565b610f5d610d21565b73ffffffffffffffffffffffffffffffffffffffff16610f7b6107d2565b73ffffffffffffffffffffffffffffffffffffffff1614610fda57610f9e610d21565b6040517f118cdaa7000000000000000000000000000000000000000000000000000000008152600401610fd19190611e10565b60405180910390fd5b565b6000600760009054906101000a900473ffffffffffffffffffffffffffffffffffffffff16905081600760006101000a81548173ffffffffffffffffffffffffffffffffffffffff021916908373ffffffffffffffffffffffffffffffffffffffff1602179055508173ffffffffffffffffffffffffffffffffffffffff168173ffffffffffffffffffffffffffffffffffffffff167f8be0079c531659141344cd1fd0a4f28419497f9722a3daafe3b4186f6b6457e060405160405180910390a35050565b600073ffffffffffffffffffffffffffffffffffffffff168273ffffffffffffffffffffffffffffffffffffffff160361111357816040517f5b08ba1800000000000000000000000000000000000000000000000000000000815260040161110a9190611e10565b60405180910390fd5b80600560008573ffffffffffffffffffffffffffffffffffffffff1673ffffffffffffffffffffffffffffffffffffffff16815260200190815260200160002060008473ffffffffffffffffffffffffffffffffffffffff1673ffffffffffffffffffffffffffffffffffffffff16815260200190815260200160002060006101000a81548160ff0219169083151502179055508173ffffffffffffffffffffffffffffffffffffffff168373ffffffffffffffffffffffffffffffffffffffff167f17307eab39ab6107e8899845ad3d59bd9653f200f220920489ca2b5937696c31836040516112049190611c9f565b60405180910390a3505050565b60008373ffffffffffffffffffffffffffffffffffffffff163b11156113bb578273ffffffffffffffffffffffffffffffffffffffff1663150b7a02868685856040518563ffffffff1660e01b815260040161127094939291906124d1565b6020604051808303816000875af19250505080156112ac57506040513d601f19601f820116820180604052508101906112a99190612532565b60015b611330573d80600081146112dc576040519150601f19603f3d011682016040523d82523d6000602084013e6112e1565b606091505b50600081510361132857836040517f64a0ae9200000000000000000000000000000000000000000000000000000000815260040161131f9190611e10565b60405180910390fd5b805181602001fd5b63150b7a0260e01b7bffffffffffffffffffffffffffffffffffffffffffffffffffffffff1916817bffffffffffffffffffffffffffffffffffffffffffffffffffffffff1916146113b957836040517f64a0ae920000000000000000000000000000000000000000000000000000000081526004016113b09190611e10565b60405180910390fd5b505b5050505050565b606060405180602001604052806000815250905090565b60606113e482610c5c565b5060006113ef6113c2565b9050600081511161140f576040518060200160405280600081525061143a565b80611419846117ec565b60405160200161142a929190612375565b6040516020818303038152906040525b915050919050565b61145c8282604051806020016040528060008152506118ba565b5050565b80600660008481526020019081526020016000209081611480919061270b565b507ff8e1a15aba9398e019f0b49df1a4fde98ee17ae345cb5f6b5e2c27f5033e8ce7826040516114b09190611ea6565b60405180910390a15050565b60007f01ffc9a7000000000000000000000000000000000000000000000000000000007bffffffffffffffffffffffffffffffffffffffffffffffffffffffff1916827bffffffffffffffffffffffffffffffffffffffffffffffffffffffff1916149050919050565b60006002600083815260200190815260200160002060009054906101000a900473ffffffffffffffffffffffffffffffffffffffff169050919050565b808061159c5750600073ffffffffffffffffffffffffffffffffffffffff168273ffffffffffffffffffffffffffffffffffffffff1614155b156116d05760006115ac84610c5c565b9050600073ffffffffffffffffffffffffffffffffffffffff168373ffffffffffffffffffffffffffffffffffffffff161415801561161757508273ffffffffffffffffffffffffffffffffffffffff168173ffffffffffffffffffffffffffffffffffffffff1614155b801561162a575061162881846109dc565b155b1561166c57826040517fa9fbf51f0000000000000000000000000000000000000000000000000000000081526004016116639190611e10565b60405180910390fd5b81156116ce57838573ffffffffffffffffffffffffffffffffffffffff168273ffffffffffffffffffffffffffffffffffffffff167f8c5be1e5ebec7d5bd14f71427d1e84f3dd0314c0f7b2291e5b200ac8c7c3b92560405160405180910390a45b505b836004600085815260200190815260200160002060006101000a81548173ffffffffffffffffffffffffffffffffffffffff021916908373ffffffffffffffffffffffffffffffffffffffff16021790555050505050565b6117338383836118de565b6117e757600073ffffffffffffffffffffffffffffffffffffffff168373ffffffffffffffffffffffffffffffffffffffff16036117a857806040517f7e27328900000000000000000000000000000000000000000000000000000000815260040161179f9190611ea6565b60405180910390fd5b81816040517f177e802f0000000000000000000000000000000000000000000000000000000081526004016117de9291906127dd565b60405180910390fd5b505050565b6060600060016117fb8461199f565b01905060008167ffffffffffffffff81111561181a57611819611fb7565b5b6040519080825280601f01601f19166020018201604052801561184c5781602001600182028036833780820191505090505b509050600082602001820190505b6001156118af578080600190039150507f3031323334353637383961626364656600000000000000000000000000000000600a86061a8153600a85816118a3576118a2612806565b5b0494506000850361185a575b819350505050919050565b6118c48383611af2565b6118d96118cf610d21565b6000858585611211565b505050565b60008073ffffffffffffffffffffffffffffffffffffffff168373ffffffffffffffffffffffffffffffffffffffff161415801561199657508273ffffffffffffffffffffffffffffffffffffffff168473ffffffffffffffffffffffffffffffffffffffff161480611957575061195684846109dc565b5b8061199557508273ffffffffffffffffffffffffffffffffffffffff1661197d83610ce4565b73ffffffffffffffffffffffffffffffffffffffff16145b5b90509392505050565b600080600090507a184f03e93ff9f4daa797ed6e38ed64bf6a1f01000000000000000083106119fd577a184f03e93ff9f4daa797ed6e38ed64bf6a1f01000000000000000083816119f3576119f2612806565b5b0492506040810190505b6d04ee2d6d415b85acef81000000008310611a3a576d04ee2d6d415b85acef81000000008381611a3057611a2f612806565b5b0492506020810190505b662386f26fc100008310611a6957662386f26fc100008381611a5f57611a5e612806565b5b0492506010810190505b6305f5e1008310611a92576305f5e1008381611a8857611a87612806565b5b0492506008810190505b6127108310611ab7576127108381611aad57611aac612806565b5b0492506004810190505b60648310611ada5760648381611ad057611acf612806565b5b0492506002810190505b600a8310611ae9576001810190505b80915050919050565b600073ffffffffffffffffffffffffffffffffffffffff168273ffffffffffffffffffffffffffffffffffffffff1603611b645760006040517f64a0ae92000000000000000000000000000000000000000000000000000000008152600401611b5b9190611e10565b60405180910390fd5b6000611b7283836000610d3b565b9050600073ffffffffffffffffffffffffffffffffffffffff168173ffffffffffffffffffffffffffffffffffffffff1614611be65760006040517f73c6ac6e000000000000000000000000000000000000000000000000000000008152600401611bdd9190611e10565b60405180910390fd5b505050565b6000604051905090565b600080fd5b600080fd5b60007fffffffff0000000000000000000000000000000000000000000000000000000082169050919050565b611c3481611bff565b8114611c3f57600080fd5b50565b600081359050611c5181611c2b565b92915050565b600060208284031215611c6d57611c6c611bf5565b5b6000611c7b84828501611c42565b91505092915050565b60008115159050919050565b611c9981611c84565b82525050565b6000602082019050611cb46000830184611c90565b92915050565b600081519050919050565b600082825260208201905092915050565b60005b83811015611cf4578082015181840152602081019050611cd9565b60008484015250505050565b6000601f19601f8301169050919050565b6000611d1c82611cba565b611d268185611cc5565b9350611d36818560208601611cd6565b611d3f81611d00565b840191505092915050565b60006020820190508181036000830152611d648184611d11565b905092915050565b6000819050919050565b611d7f81611d6c565b8114611d8a57600080fd5b50565b600081359050611d9c81611d76565b92915050565b600060208284031215611db857611db7611bf5565b5b6000611dc684828501611d8d565b91505092915050565b600073ffffffffffffffffffffffffffffffffffffffff82169050919050565b6000611dfa82611dcf565b9050919050565b611e0a81611def565b82525050565b6000602082019050611e256000830184611e01565b92915050565b611e3481611def565b8114611e3f57600080fd5b50565b600081359050611e5181611e2b565b92915050565b60008060408385031215611e6e57611e6d611bf5565b5b6000611e7c85828601611e42565b9250506020611e8d85828601611d8d565b9150509250929050565b611ea081611d6c565b82525050565b6000602082019050611ebb6000830184611e97565b92915050565b600080600060608486031215611eda57611ed9611bf5565b5b6000611ee886828701611e42565b9350506020611ef986828701611e42565b9250506040611f0a86828701611d8d565b9150509250925092565b600060208284031215611f2a57611f29611bf5565b5b6000611f3884828501611e42565b91505092915050565b611f4a81611c84565b8114611f5557600080fd5b50565b600081359050611f6781611f41565b92915050565b60008060408385031215611f8457611f83611bf5565b5b6000611f9285828601611e42565b9250506020611fa385828601611f58565b9150509250929050565b600080fd5b600080fd5b7f4e487b7100000000000000000000000000000000000000000000000000000000600052604160045260246000fd5b611fef82611d00565b810181811067ffffffffffffffff8211171561200e5761200d611fb7565b5b80604052505050565b6000612021611beb565b905061202d8282611fe6565b919050565b600067ffffffffffffffff82111561204d5761204c611fb7565b5b61205682611d00565b9050602081019050919050565b82818337600083830152505050565b600061208561208084612032565b612017565b9050828152602081018484840111156120a1576120a0611fb2565b5b6120ac848285612063565b509392505050565b600082601f8301126120c9576120c8611fad565b5b81356120d9848260208601612072565b91505092915050565b600080600080608085870312156120fc576120fb611bf5565b5b600061210a87828801611e42565b945050602061211b87828801611e42565b935050604061212c87828801611d8d565b925050606085013567ffffffffffffffff81111561214d5761214c611bfa565b5b612159878288016120b4565b91505092959194509250565b6000806040838503121561217c5761217b611bf5565b5b600061218a85828601611e42565b925050602061219b85828601611e42565b9150509250929050565b600067ffffffffffffffff8211156121c0576121bf611fb7565b5b6121c982611d00565b9050602081019050919050565b60006121e96121e4846121a5565b612017565b90508281526020810184848401111561220557612204611fb2565b5b612210848285612063565b509392505050565b600082601f83011261222d5761222c611fad565b5b813561223d8482602086016121d6565b91505092915050565b6000806040838503121561225d5761225c611bf5565b5b600061226b85828601611e42565b925050602083013567ffffffffffffffff81111561228c5761228b611bfa565b5b61229885828601612218565b9150509250929050565b7f4e487b7100000000000000000000000000000000000000000000000000000000600052602260045260246000fd5b600060028204905060018216806122e957607f821691505b6020821081036122fc576122fb6122a2565b5b50919050565b60006060820190506123176000830186611e01565b6123246020830185611e97565b6123316040830184611e01565b949350505050565b600081905092915050565b600061234f82611cba565b6123598185612339565b9350612369818560208601611cd6565b80840191505092915050565b60006123818285612344565b915061238d8284612344565b91508190509392505050565b7f496e73756666696369656e74207061796d656e74000000000000000000000000600082015250565b60006123cf601483611cc5565b91506123da82612399565b602082019050919050565b600060208201905081810360008301526123fe816123c2565b9050919050565b7f4e487b7100000000000000000000000000000000000000000000000000000000600052601160045260246000fd5b600061243f82611d6c565b91507fffffffffffffffffffffffffffffffffffffffffffffffffffffffffffffffff820361247157612470612405565b5b600182019050919050565b600081519050919050565b600082825260208201905092915050565b60006124a38261247c565b6124ad8185612487565b93506124bd818560208601611cd6565b6124c681611d00565b840191505092915050565b60006080820190506124e66000830187611e01565b6124f36020830186611e01565b6125006040830185611e97565b81810360608301526125128184612498565b905095945050505050565b60008151905061252c81611c2b565b92915050565b60006020828403121561254857612547611bf5565b5b60006125568482850161251d565b91505092915050565b60008190508160005260206000209050919050565b60006020601f8301049050919050565b600082821b905092915050565b6000600883026125c17fffffffffffffffffffffffffffffffffffffffffffffffffffffffffffffffff82612584565b6125cb8683612584565b95508019841693508086168417925050509392505050565b6000819050919050565b60006126086126036125fe84611d6c565b6125e3565b611d6c565b9050919050565b6000819050919050565b612622836125ed565b61263661262e8261260f565b848454612591565b825550505050565b600090565b61264b61263e565b612656818484612619565b505050565b5b8181101561267a5761266f600082612643565b60018101905061265c565b5050565b601f8211156126bf576126908161255f565b61269984612574565b810160208510156126a8578190505b6126bc6126b485612574565b83018261265b565b50505b505050565b600082821c905092915050565b60006126e2600019846008026126c4565b1980831691505092915050565b60006126fb83836126d1565b9150826002028217905092915050565b61271482611cba565b67ffffffffffffffff81111561272d5761272c611fb7565b5b61273782546122d1565b61274282828561267e565b600060209050601f8311600181146127755760008415612763578287015190505b61276d85826126ef565b8655506127d5565b601f1984166127838661255f565b60005b828110156127ab57848901518255600182019150602085019450602081019050612786565b868310156127c857848901516127c4601f8916826126d1565b8355505b6001600288020188555050505b505050505050565b60006040820190506127f26000830185611e01565b6127ff6020830184611e97565b9392505050565b7f4e487b7100000000000000000000000000000000000000000000000000000000600052601260045260246000fdfea2646970667358221220fc319fc7359bf92838d060b45a68224379c8c70f39ea8ba87f5233b8bcaf2fae64736f6c634300081c0033",
  "linkReferences": {},
  "deployedLinkReferences": {}
}